:020000040000FA
:100000000C945E000C9486000C9486000C94860080
:100010000C9486000C9486000C9486000C94E204E8
:100020000C9486000C9486000C9486000C94860038
:100030000C9486000C9486000C9486000C94860028
:100040000C943E050C9486000C9486000C9486005B
:100050000C9486000C9486000C9486000C94860008
:100060000C9486000C948600000000080002010039
:100070000003040700000000000000000200000070
:1000800000250028002B0000000000240027002A83
:100090000004040404040404040202020202020331
:1000A000030303030301020408102040800102043B
:1000B000081020010204081020006E0611241FBE43
:1000C000CFEFD8E0DEBFCDBF12E0A0E0B1E0E6E0C8
:1000D000FEE002C005900D92A631B107D9F722E0EB
:1000E000A6E1B2E001C01D92AA34B207E1F710E028
:1000F000CEE5D0E004C02197FE010E94FB06CD357D
:10010000D107C9F70E9488050C9401070C940000E0
:1001100090E0FC01EB55FF4F24918F569F4FFC015F
:100120008491882399F090E0880F991FFC01E9578A
:10013000FF4FA591B491FC01E358FF4F8591949135
:100140008FB7F894EC91E22BEC938FBF08958F92C8
:100150009F92AF92BF92CF92DF92EF92FF92CF9396
:100160006B0190910001891769F09F3F09F46EC0FF
:10017000CF91FF90EF90DF90CF90BF90AF909F9086
:100180008F900895ECE7F0E0C491C7FDF1CF0E9495
:100190008800CC2319F0C23009F02BC1F12CE12CDE
:1001A00060E072E18AE790E0A70196010E94A6064E
:1001B00049015A01DA01C9010197A109B1098F3F2B
:1001C0009105A105B10509F00CF4F7C060E472E4F3
:1001D0008FE090E0A70196010E94A6062150310908
:1001E00041095109C23009F0A9C082E02F3F310511
:1001F0004105510509F00CF491C160E970ED83E00F
:1002000090E0A70196010E94A606215031094109FC
:10021000510983E02F3F31054105510509F00CF4E8
:100220007DC168E478EE81E090E0A70196010E942C
:10023000A60621503109410951092F3F31054105D9
:10024000510511F00CF098C084E068C18093000162
:10025000ECE7F0E0C491CF3F09F48ACFC13031F12F
:1002600040F0C23009F444C0C7FD82CF0E9488002C
:1002700092CF14BC15BC94B5926094BD95B59160B5
:1002800095BD282F30E0F901EF56FF4FE491F0E0E3
:10029000EE0FFF1FE358FF4F45915491F901EB55C5
:1002A000FF4FE491E0932502C0E071CF10928000EF
:1002B00010928100909181009860909381009091BC
:1002C0008100916090938100282F30E0F901EF5672
:1002D000FF4FE491F0E0EE0FFF1FE358FF4F459111
:1002E0005491F901EB55FF4FE491E09324024FCF75
:1002F0001092B0001092B1009091B0009260909373
:10030000B0009091B10091609093B100282F30E03F
:10031000F901EF56FF4FE491F0E0EE0FFF1FE358B5
:10032000FF4F459154915093230240932202F901CB
:10033000EB55FF4FE491E093210229CF2F3F310588
:100340004105510509F00CF452C068E478EE81E0F3
:1003500090E0A70196010E94A606215031094109AB
:100360005109CC2309F4AFC02F3F31054105510598
:1003700011F00CF0B0C068CF64E274EF80E090E060
:10038000A70196010E94A606215031094109510991
:1003900085E02F3F31054105510509F008F4BEC045
:1003A00062E17AE780E090E0A70196010E94A6064C
:1003B00021503109410951099CC09C0181E0C111C2
:1003C000ADC095B5987F892B85BD27BD8FEF9FEF79
:1003D000DC0180932E0290932F02A0933002B09301
:1003E000310280916E00826080936E00C1CE82E007
:1003F000E6CFF12CE12C60E072E18AE790E0A70102
:1004000096010E94A606215031094109510991E047
:100410002115310581E0480751056CF068E478EE5C
:1004200081E090E0A70196010E94A60621503109C3
:100430004109510993E0C13009F076C080918100F3
:10044000887F892B809381003093890020938800D6
:100450008FEF9FEFDC0180932A0290932B02A093F1
:100460002C02B0932D0280916F00826080936F0008
:100470007FCE2093B3008FEF9FEFDC0180932602A5
:1004800090932702A0932802B093290280917000D4
:100490008260809370006CCE84E02F3F310541056F
:1004A000510509F008F48DCF9AE0B594A79497947C
:1004B00087949A95D1F7A5019401215031094109FA
:1004C000510985E07ECF83E02F3F3105410551057D
:1004D00009F00CF476CF62E17AE780E090E0A701C2
:1004E00096010E94A6062150310941095109CC23E9
:1004F00099F286E02F3F31054105510579F070F002
:100500008AE0B594A794979487948A95D1F7A5012A
:100510009401215031094109510987E09091B100BE
:10052000987F892B8093B100C13009F48DCFC23000
:1005300009F49FCFC1111CCE48CFAF92BF92CF928A
:10054000DF92EF92FF920F931F93CF93DF936C0193
:100550007B018B01040F151FEB015E01AE18BF0874
:10056000C017D10759F06991D601ED91FC91019026
:10057000F081E02DC6010995892B79F7C501DF913E
:10058000CF911F910F91FF90EF90DF90CF90BF9090
:10059000AF90089590E0FC01E859FF4F2491FC01D1
:1005A000EB55FF4F3491FC01EF56FF4FE491EE23E2
:1005B000C9F0222339F0233001F1A8F4213019F1D8
:1005C000223029F1F0E0EE0FFF1FE358FF4FA59115
:1005D000B4918FB7F894EC91611126C030953E2309
:1005E0003C938FBF08952730A9F02830C9F02430FC
:1005F00049F7809180008F7D03C0809180008F77C4
:1006000080938000DFCF84B58F7784BDDBCF84B546
:100610008F7DFBCF8091B0008F778093B000D2CFD9
:100620008091B0008F7DF9CF3E2BDACF9091000101
:1006300089130BC0ECE7F0E0E4919FEF9093000189
:10064000E13049F028F0E23061F060E00C94CA0239
:1006500010926E00FACF90916F009D7F90936F0083
:10066000F4CF909170009D7F9093700091E09093F3
:10067000B0009091B100987F94609093B100109277
:10068000B300E3CF3FB7F89480911B0290911C0216
:10069000A0911D02B0911E0226B5A89B05C02F3F58
:1006A00019F00196A11DB11D3FBFBA2FA92F982F98
:1006B0008827BC01CD01620F711D811D911D42E093
:1006C000660F771F881F991F4A95D1F708958F925B
:1006D0009F92AF92BF92CF92DF92EF92FF926B0107
:1006E0007C010E9442034B015C01C114D104E1046E
:1006F000F104B9F00E944203681979098A099B093B
:10070000683E73408105910580F321E0C21AD1084B
:10071000E108F10888EE880E83E0981EA11CB11C48
:10072000E4CFFF90EF90DF90CF90BF90AF909F907D
:100730008F900895089590E080E00895CF93DF931F
:10074000EC0160E08E810E94CA0261E08E810E940D
:10075000CA0260E08E810E94CA028BE891E0019794
:10076000F1F7DF91CF910895CF92DF92EF92FF9250
:100770000F931F93CF93DF936C017C0187E0E80E0A
:10078000F11CD0E0C0E0062F10E0B8010C2E02C032
:10079000759567950A94E2F76170F70181917F0181
:1007A0000E94CA022196C430D10579F7C601DF91B3
:1007B000CF911F910F91FF90EF90DF90CF900C940D
:1007C0009E03CF92DF92EF92FF920F931F93CF93EE
:1007D000DF93EC01F62E642F8C810E94CA028D817A
:1007E0008F3F19F060E00E94CA020F2D10E08F8544
:1007F00084FF25C06E0187E0C80ED11CF12CE12CCE
:10080000B8010E2C02C0759567950A94E2F76170E5
:10081000F60181916F010E94CA02FFEFEF1AFF0AF1
:1008200088E0E816F10461F7CE01DF91CF911F91C6
:100830000F91FF90EF90DF90CF900C949E03B80142
:1008400084E0759567958A95E1F7CE010E94B4031F
:100850006F2DCE01DF91CF911F910F91FF90EF90FF
:10086000DF90CF900C94B40340E0682F82E392E0D5
:100870000C94E103CF93DF93823029F490914102ED
:10088000986090934102809345021092460280E462
:100890008093470280E18093480280E5809349027B
:1008A000809136020E948800809137028F3F11F0BC
:1008B0000E948800809138020E948800C2E3D2E042
:1008C0009E01225332408091410284FD0AC084E09F
:1008D00090E02196281739073CF48E810E94880009
:1008E000EFCF88E090E0F5CF8BE39DE00197F1F743
:1008F00060E0809136020E94CA0260E08091380276
:100900000E94CA02809137028F3F19F060E00E9476
:10091000CA028091410284FD39C063E082E392E023
:100920000E94B403CBE4D6E4CE010197F1F763E073
:1009300082E392E00E94B4032197F1F763E082E33F
:1009400092E00E94B40383E592E00197F1F762E040
:1009500082E392E00E94B4038091410280620E948F
:10096000340484E0809342028CE00E94340481E0ED
:100970000E9434048BE39FE10197F1F782E08093BA
:10098000430286E0DF91CF910C94340480620E9490
:1009900034048BE496E40197F1F780914102806280
:1009A0000E94340483E592E00197F1F780914102BF
:1009B00080620E943404D0CF41E00E94E10381E0D4
:1009C00090E008951F920F920FB60F9211242F936B
:1009D0003F934F935F936F937F938F939F93AF93C7
:1009E000BF93EF93FF938091260290912702A091ED
:1009F0002802B0912902892B8A2B8B2BD1F190915F
:100A00002102E0912202F0912302808189278083D4
:100A10008091260290912702A0912802B09129028C
:100A2000181619061A061B069CF48091260290914E
:100A30002702A0912802B09129020197A109B109CA
:100A40008093260290932702A0932802B093290254
:100A5000FF91EF91BF91AF919F918F917F916F9196
:100A60005F914F913F912F910F900FBE0F901F906C
:100A70001895809100010E941603EACF1F920F92F1
:100A80000FB60F9211242F933F938F939F93AF93A1
:100A9000BF938091170290911802A0911902B09112
:100AA0001A023091160223E0230F2D3758F50196D4
:100AB000A11DB11D20931602809317029093180276
:100AC000A0931902B0931A0280911B0290911C020C
:100AD000A0911D02B0911E020196A11DB11D80932F
:100AE0001B0290931C02A0931D02B0931E02BF91A3
:100AF000AF919F918F913F912F910F900FBE0F90CB
:100B00001F90189526E8230F0296A11DB11DD2CF84
:100B1000789484B5826084BD84B5816084BD85B5D8
:100B2000826085BD85B5816085BD80916E008160E4
:100B300080936E001092810080918100826080938A
:100B4000810080918100816080938100809180008C
:100B50008160809380008091B10084608093B100B7
:100B60008091B00081608093B00080917A008460B1
:100B700080937A0080917A00826080937A008091DD
:100B80007A00816080937A0080917A0080688093F7
:100B90007A001092C10081E10E9488008DE00E94DD
:100BA000880095EE692E91E0792E24E8C22E23E08C
:100BB000D22E3BE3A32E3FE1B32E40E0E42E40E0F3
:100BC000F42E6BE472E083E00E94A70082E00E94B2
:100BD0003A0440E150E065EE71E082E392E00E9469
:100BE0009D0264EF71E080E090E00E94670383E083
:100BF0000E941603E0914502E23008F05AC0E1502D
:100C0000F0E0EE5CFD4F848980680E9434044EE081
:100C100050E066EF71E082E392E00E949D02C9E736
:100C2000D1E00DE011E06C167D0609F444C061E0EE
:100C30008DE00E94CA0281E10E94880061E081E1AA
:100C40000E94CA0269917991C6010E9492064B01E5
:100C50007093200260931F02F801619171918F01DE
:100C600083E00E94A700B401990C880B990B0E94A5
:100C7000670381E00E943404C5010197F1F760E049
:100C80008DE00E94CA0260E081E10E94CA0264EF26
:100C900071E080E090E00E94670383E00E94160309
:100CA0004FE050E065E072E082E392E00E949D0236
:100CB000BACFE1E0A5CF60911F0270912002660FCC
:100CC000771F072E000C880B990B0E946703E11415
:100CD000F10409F476CF0E94000073CFE2E3F2E062
:100CE0001382128285E091E09183808381E0848386
:100CF0008FEF858316828FE0878380E180878AE08B
:100D0000818789E082871386148615861686178662
:100D100081E00E943A048BEB93E090932002809351
:100D20001F02089597FB072E16F4009407D077FD55
:100D300009D00E94C50607FC05D03EF49095819528
:100D40009F4F0895709561957F4F0895052E97FBED
:100D50001EF400940E94BD0657FD07D00E94D906DC
:100D600007FC03D04EF40C94BD0650954095309589
:100D700021953F4F4F4F5F4F089590958095709507
:100D800061957F4F8F4F9F4F0895AA1BBB1B51E169
:100D900007C0AA1FBB1FA617B70710F0A61BB70BEB
:100DA000881F991F5A95A9F780959095BC01CD0190
:100DB0000895A1E21A2EAA1BBB1BFD010DC0AA1F9C
:100DC000BB1FEE1FFF1FA217B307E407F50720F0B4
:100DD000A21BB30BE40BF50B661F771F881F991F2F
:100DE0001A9469F760957095809590959B01AC0178
:100DF000BD01CF010895EE0FFF1F0590F491E02D86
:100E00000994F894FFCFFF00000000DC049D029BD2
:100E1000039A0306015D015D0188015D014A012617
:100E2000012601260188018801B80188015D014A77
:100E30000106010601B801B801D201B80188015DBF
:100E400001260106010601260188014A015D01060D
:100E5000015D015D015D014A014A015D014A012612
:100E60000106018801B801880188015D015D010B5F
:100E700002060106010601260188014A015D010200
:100E8000000200030003000300030002000200024E
:100E9000000200030003000300030002000200023E
:100EA000000200030003000300030002000200032D
:100EB0000003000200020002000100020002000222
:100EC0000002000100020002000200020001000214
:100ED00000020003000300030003000200020003FD
:100EE00000030002000200020001003235206465A8
:100EF0002064696369656D62726520002046656CD7
:100F0000697A204E617669646164002046656C6987
:0C0F10007A204E61766964616420000064
:107E0000112484B714BE81FFF0D085E080938100F7
:107E100082E08093C00088E18093C10086E0809377
:107E2000C20080E18093C4008EE0C9D0259A86E02C
:107E300020E33CEF91E0309385002093840096BBD3
:107E4000B09BFECF1D9AA8958150A9F7CC24DD24C4
:107E500088248394B5E0AB2EA1E19A2EF3E0BF2EE7
:107E6000A2D0813461F49FD0082FAFD0023811F036
:107E7000013811F484E001C083E08DD089C08234E0
:107E800011F484E103C0853419F485E0A6D080C0E4
:107E9000853579F488D0E82EFF2485D0082F10E0AE
:107EA000102F00270E291F29000F111F8ED06801E7
:107EB0006FC0863521F484E090D080E0DECF843638
:107EC00009F040C070D06FD0082F6DD080E0C81688
:107ED00080E7D80618F4F601B7BEE895C0E0D1E017
:107EE00062D089930C17E1F7F0E0CF16F0E7DF06D8
:107EF00018F0F601B7BEE89568D007B600FCFDCFD4
:107F0000A601A0E0B1E02C9130E011968C91119780
:107F100090E0982F8827822B932B1296FA010C0160
:107F200087BEE89511244E5F5F4FF1E0A038BF0790
:107F300051F7F601A7BEE89507B600FCFDCF97BE46
:107F4000E89526C08437B1F42ED02DD0F82E2BD052
:107F50003CD0F601EF2C8F010F5F1F4F84911BD097
:107F6000EA94F801C1F70894C11CD11CFA94CF0C13
:107F7000D11C0EC0853739F428D08EE10CD085E9AC
:107F80000AD08FE07ACF813511F488E018D01DD067
:107F900080E101D065CF982F8091C00085FFFCCF94
:107FA0009093C60008958091C00087FFFCCF809118
:107FB000C00084FD01C0A8958091C6000895E0E648
:107FC000F0E098E1908380830895EDDF803219F02E
:107FD00088E0F5DFFFCF84E1DECF1F93182FE3DFCA
:107FE0001150E9F7F2DF1F91089580E0E8DFEE27F6
:047FF000FF270994CA
:027FFE00040479
:00000001FF
